{
  "contractName": "News",
  "abi": [
    {
      "constant": true,
      "inputs": [],
      "name": "user",
      "outputs": [
        {
          "name": "",
          "type": "address"
        }
      ],
      "payable": false,
      "stateMutability": "view",
      "type": "function"
    },
    {
      "constant": false,
      "inputs": [
        {
          "name": "_articleId",
          "type": "uint256"
        }
      ],
      "name": "Readcount",
      "outputs": [],
      "payable": true,
      "stateMutability": "payable",
      "type": "function"
    },
    {
      "constant": false,
      "inputs": [
        {
          "name": "_address",
          "type": "address"
        },
        {
          "name": "_articleId",
          "type": "uint256"
        },
        {
          "name": "_author",
          "type": "string"
        },
        {
          "name": "_content",
          "type": "string"
        }
      ],
      "name": "Writer",
      "outputs": [
        {
          "name": "",
          "type": "bool"
        }
      ],
      "payable": true,
      "stateMutability": "payable",
      "type": "function"
    },
    {
      "constant": true,
      "inputs": [
        {
          "name": "_articleId",
          "type": "uint256"
        }
      ],
      "name": "Reader",
      "outputs": [
        {
          "name": "",
          "type": "string"
        },
        {
          "name": "",
          "type": "string"
        },
        {
          "name": "",
          "type": "uint256"
        },
        {
          "name": "",
          "type": "uint256"
        }
      ],
      "payable": false,
      "stateMutability": "view",
      "type": "function"
    },
    {
      "constant": false,
      "inputs": [
        {
          "name": "_articleId",
          "type": "uint256"
        },
        {
          "name": "vote",
          "type": "bool"
        }
      ],
      "name": "Reviewer",
      "outputs": [
        {
          "name": "",
          "type": "uint256"
        }
      ],
      "payable": true,
      "stateMutability": "payable",
      "type": "function"
    },
    {
      "inputs": [
        {
          "name": "_type",
          "type": "uint256"
        }
      ],
      "payable": false,
      "stateMutability": "nonpayable",
      "type": "constructor"
    }
  ],
  "bytecode": "0x6060604052341561000f57600080fd5b6040516020806107c783398101604052808051906020019091905050336000806101000a81548173ffffffffffffffffffffffffffffffffffffffff021916908373ffffffffffffffffffffffffffffffffffffffff1602179055508060018190555050610745806100826000396000f30060606040526004361061006d576000357c0100000000000000000000000000000000000000000000000000000000900463ffffffff1680634f8632ba1461007257806389f48986146100c75780638d11996e146100df578063b584be2e146101b4578063e50bf3f2146102ca575b600080fd5b341561007d57600080fd5b610085610301565b604051808273ffffffffffffffffffffffffffffffffffffffff1673ffffffffffffffffffffffffffffffffffffffff16815260200191505060405180910390f35b6100dd6004808035906020019091905050610326565b005b61019a600480803573ffffffffffffffffffffffffffffffffffffffff1690602001909190803590602001909190803590602001908201803590602001908080601f0160208091040260200160405190810160405280939291908181526020018383808284378201915050505050509190803590602001908201803590602001908080601f0160208091040260200160405190810160405280939291908181526020018383808284378201915050505050509190505061034e565b604051808215151515815260200191505060405180910390f35b34156101bf57600080fd5b6101d560048080359060200190919050506103f1565b604051808060200180602001858152602001848152602001838103835287818151815260200191508051906020019080838360005b8381101561022557808201518184015260208101905061020a565b50505050905090810190601f1680156102525780820380516001836020036101000a031916815260200191505b50838103825286818151815260200191508051906020019080838360005b8381101561028b578082015181840152602081019050610270565b50505050905090810190601f1680156102b85780820380516001836020036101000a031916815260200191505b50965050505050505060405180910390f35b6102eb600480803590602001909190803515159060200190919050506105f2565b6040518082815260200191505060405180910390f35b6000809054906101000a900473ffffffffffffffffffffffffffffffffffffffff1681565b6001600260008381526020019081526020016000206005016000828254019250508190555050565b600080600260008681526020019081526020016000209050848160000181905550858160010160006101000a81548173ffffffffffffffffffffffffffffffffffffffff021916908373ffffffffffffffffffffffffffffffffffffffff160217905550838160020190805190602001906103ca929190610660565b50828160060190805190602001906103e3929190610660565b506001915050949350505050565b6103f96106e0565b6104016106e0565b60008084600260008781526020019081526020016000206000015414151561042557fe5b601460026000878152602001908152602001600020600401541015151561044857fe5b61045185610326565b600260008681526020019081526020016000206002016002600087815260200190815260200160002060060160026000888152602001908152602001600020600401546002600089815260200190815260200160002060050154838054600181600116156101000203166002900480601f0160208091040260200160405190810160405280929190818152602001828054600181600116156101000203166002900480156105405780601f1061051557610100808354040283529160200191610540565b820191906000526020600020905b81548152906001019060200180831161052357829003601f168201915b50505050509350828054600181600116156101000203166002900480601f0160208091040260200160405190810160405280929190818152602001828054600181600116156101000203166002900480156105dc5780601f106105b1576101008083540402835291602001916105dc565b820191906000526020600020905b8154815290600101906020018083116105bf57829003601f168201915b5050505050925093509350935093509193509193565b600082600260008581526020019081526020016000206000015414151561061557fe5b811561064157601460026000858152602001908152602001600020600401600082825401925050819055505b6002600084815260200190815260200160002060040154905092915050565b828054600181600116156101000203166002900490600052602060002090601f016020900481019282601f106106a157805160ff19168380011785556106cf565b828001600101855582156106cf579182015b828111156106ce5782518255916020019190600101906106b3565b5b5090506106dc91906106f4565b5090565b602060405190810160405280600081525090565b61071691905b808211156107125760008160009055506001016106fa565b5090565b905600a165627a7a72305820ed18c2f3436594362739b6cd06221a9671beeedabb1c4d30371932bf853648dc0029",
  "source": "pragma solidity ^0.4.18;\n\ncontract News{\n\n\taddress\tpublic user;\n\tuint private  userType;\n\n\tstruct Articles{//news article information\n\t\tuint articleId;\n\t\taddress authorAddress;\n\t\tstring author;\n\t\tuint articleLength;\n\t\tuint reviewValidity;\n\t\tuint views;\n\t\tstring content;\n\t\t//also add validator address for record\n\t\t\n\t}\n\tmapping(uint => Articles) private article; //map article struct to address //??convert address to int\n\n\tfunction News(uint _type)public{//class constructor function\n\t\tuser = msg.sender;\n\t\tuserType = _type;\n\t}\n\n    function Writer(address _address,uint _articleId,string _author,string _content) payable public returns(bool) {//bring artivleId for map key\n        var art = article[_articleId]; //[_address]\n        \n        art.articleId = _articleId;\n        art.authorAddress = _address;\n        art.author = _author;\n        art.content =  _content;\n        \n        return true;// written to blockchain\n        \n    }\n    //call smart contract to review with user address,articleId, vote (true false)\n    function Reviewer(uint _articleId, bool vote) payable public returns(uint){\n        \n        assert(article[_articleId].articleId==_articleId);\n        if(vote) article[_articleId].reviewValidity +=20;\n        return article[_articleId].reviewValidity;\n    }   \n    \n    function Reader(uint _articleId) view public returns(string ,string,uint,uint){\n            \n\t    //show matched articleId  //?? use for loop to find matching articleid\n\t    assert(article[_articleId].articleId==_articleId);\n\t    assert(article[_articleId].reviewValidity >=20);\n\t    Readcount(_articleId); // used for read count put it should save on blockchain\n\t     //article[_articleId].views +=1;\n\t    return (article[_articleId].author, article[_articleId].content,\n\t    article[_articleId].reviewValidity,article[_articleId].views) ;\n    }\n    \n    function Readcount(uint _articleId) payable public{\n        article[_articleId].views +=1;\n        \n    }\n     \n}",
  "sourcePath": "/home/doltry/Ethereum-project/newsMedia/contracts/News.sol",
  "compiler": {
    "name": "solc",
    "version": "0.4.18+commit.9cf6e910.Emscripten.clang"
  },
  "schemaVersion": "1.0.1",
  "updatedAt": "2018-01-30T12:54:16.076Z"
}